:02000004F90001
:10000000971100009381019E23A00182732540F186
:1000100015C503A5018275DD0F0020020F10000039
:1000200083A7C181014581450146828723AEA18016
:100030000F001001054523A0A18282801381019346
:10004000170500001305851897050000938505180E
:100050001386C18163FAC5008322050023A05500E1
:1000600011059105E3EAC5FE1385C181938581825F
:100070006377B500232005001105E36DB5FEC520AB
:06008000752001A0828042
:10008600484141811375F50F8280411106C622C48D
:1000960026C22A84AE842285E53775DD04C0B240C7
:1000A6002244924441018280DC451CC59C41FD17D7
:1000B600D8412207D98F98454207D98F5CC58280DF
:1000C600B7470F0093870724B3D5F502B167E11749
:1000D6003E961C423385A5023E951C42B307F54069
:1000E600E3DD07FE8280011106CEA1473EC002C2B3
:1000F60002C49307E0103EC68A85370501E86D37CE
:10010600F24005618280411106C622C42A848345D5
:10011600040091C50504370501E8853FCDBFB2400F
:10012600224441018280411106C6753F370500F918
:100136001305851CC93F370500F91305C51DE137B1
:100146003706B0F8B7B5E60E9385052837450F0094
:1001560013050524B537C5B7411122C44AC0170493
:10016600000013044406170900001309C9053309E2
:10017600894006C626C213592940630909008144ED
:100186001C40850411048297E31C99FE17040000A5
:1001960013046403170900001309E90233098940AF
:1001A600135929406309090081441C408504110440
:1001B6008297E31C99FEB2402244924402494101CF
:0201C600828035
:1001C80052495343565F4F43525F424F4F540D0AB3
:1001D8000000000052495343565F4F43525F414C61
:1001E8004956450D0A00000000000000000000000C
:0201F800000005
:04000005F9000000FE
:00000001FF
