:10100000972100009381011123AC0182732540F1E7
:1010100015C503A5818375DD0F0020020F100000A8
:1010200083A74183014581450146828723AAA18286
:101030000F001001054523ACA1828280173100000A
:1010400013014191171500001305052D9715000098
:101050009385852C1386418363FAC500832205009E
:1010600023A0550011059105E3EAC5FE13854183D0
:10107000938501846377B500232005001105E36D96
:0A108000B5FE4920392D01A0828041
:10108A00B367B5008D8BB9EF9841B7867F7F93869A
:10109A00F6F7B377D700B697D98FD58F7D56639C6D
:1010AA00C7042A867D5811069105232EE6FE98412B
:1010BA00B377D700B697D98FD58FE38607FF83C753
:1010CA00050003C7150083C625002300F60099C74B
:1010DA00A300E60001C72301D60091E28280A301A2
:1010EA0006008280AA8703C7050085078505A38FA6
:1010FA00E7FE75FB82802A86D9B7411122C44AC00D
:10110A00171400001304A42017190000130929203A
:10111A003309894006C626C21359294063090900C2
:10112A0081441C40850411048297E31C99FE17141C
:10113A0000001304C41D171900001309491D3309BF
:10114A008940135929406309090081441C408504D8
:10115A0011048297E31C99FEB24022449244024948
:10116A0041018280411122C406C6937735002A8440
:10117A00A9E718413706FFFE1306F6EFB307C700C3
:10118A00B78680801347F7FF93860608F98FF58F95
:10119A008DE711051841B307C7001347F7FFF98F09
:1011AA00F58F81EF11051841B307C7001347F7FF01
:1011BA00F98FF58FF9DF11A0050583470500EDFFCB
:1011CA00C1352285B240224441018280937735009D
:1011DA002A87A1E3B7867F7F9386F6F7FD55110725
:1011EA000326C7FFB377D600B697D18FD58FE3888A
:1011FA00B7FE8346C7FFB307A7400346D7FF034599
:10120A00E7FF8DC60DC23335A0003E957915828061
:10121A00F1D283470700050793763700F5FB098F5C
:10122A001305F7FF82801385D7FF82801385C7FFD6
:10123A008280484141811375F50F8280484161815E
:10124A008280411106C622C426C22A84AE8422851F
:10125A00CD3775DD04C0B2402244924441018280F8
:10126A00411106C622C42A842285C93F75DD084079
:10127A001375F50FB240224441018280DC451CC53A
:10128A009C41FD17D8412207D98F98454207D98F2B
:10129A005CC58280411106C6AA85370501E8553723
:1012AA00B24041018280411106C622C42A84034504
:1012BA00040001C50504F93FDDBFB24022444101E3
:1012CA008280411106C622C426C2AA84714429A872
:1012DA00B3D7840013F7F700896793878731BA97E2
:1012EA0003C50700453F7114E35404FEB24022448B
:1012FA00924441018280411106C622C426C2AA84B0
:10130A00714429A8B3D7840013F7F7008967938734
:10131A00C732BA9703C50700B53F7114E35404FEF8
:10132A00B2402244924441018280411106C613759B
:10133A00F50F8D37B24041018280411106C6A537AB
:10134A00B24041018280797106D622D426D2AA847B
:10135A00634405000A840DA01305D002F937B304CB
:10136A009040CDBF2947B3E7E402938707032300E0
:10137A00F400B3C4E4020504F5F48A87E304F4FE36
:10138A0029A07D14034504004D378A87E31BF4FE28
:10139A00B2502254925445618280411106C60147D7
:1013AA009D4763CBE70093162700C157B397D70031
:1013BA00E98F99C30507EDB73D3FB24041018280ED
:1013CA00411106C601479D4763CBE70093162700E4
:1013DA00C157B397D700E98F99C30507EDB7D5353C
:1013EA00B24041018280011106CEA1473EC002C22D
:1013FA0002C49307E0103EC68A85370501E8BD3D61
:10140A00F24005618280411106C622C42A847D3BCE
:10141A007D15814763D1A702B306F40003C606000F
:10142A003307A400834507002380B6002300C700C2
:10143A0085077D15C5B7B24022444101828041111A
:10144A0006C6634505002A86014831A03306A04036
:10145A00E5BF46883E86A947B366F6029308180098
:10146A0033870501938606032300D700B347F602A4
:10147A002547E340C7FE634A0500AE98238008006B
:10148A002E855137B24041018280AE989307D0022F
:10149A002380F80093082800CDB7011106CE22CC8C
:1014AA0026CA22A426A02E84D31705C2538407D2A3
:1014BA005374850AAA853E8559379307E0022300AB
:1014CA00F4009304140053741440D304044207B480
:1014DA008181D3F48412D3F41440D30700F0D39754
:1014EA00F4A095EB114463518004538404427D14A3
:1014FA00D30504D207B50182C92AD317A4A2E5D716
:10150A00D30700F0D39797A0F9DF9307000323804E
:10151A00F4008504C9BF9307D002A300F400930422
:10152A002400D39494207DBFA685539504C0013F1F
:10153A00F2406244D24422248224056182803971B5
:10154A0006DE22DC6C002808893F0347D100930796
:10155A00D0026303F70401446C00280821310347D1
:10156A0081019307D0026303F70039E82808253B75
:10157A00F2506254216182801387F7FF1418BE96D5
:10158A0083C6C6FD10183297230ED7FC8507254758
:10159A00E354F7FE0544C9B78947D5BF1387170037
:1015AA001418BE9683C686FE101832972304D7FEF7
:1015BA00FD17E3D507FE9307D002230CF1007DB790
:1015CA00CD47C5BF397106CE22CC26CAAA842ED2EF
:1015DA0032D436D63AD83EDA42DC46DE5C103EC613
:1015EA00014401A8B247138747003AC68843353BEE
:1015FA000504B387840003C5070051C99307500245
:10160A006300F5041D33EDB7B247138747003AC6A6
:10161A0088432533F1BFB247138747003AC6884348
:10162A001D33F9B7B247138747003AC68843493B87
:10163A00C1B7B247138747003AC68843B93B4DBF83
:10164A000504B387840083C70700DDD31307300678
:10165A00E38AE7F813073007E388E7FA1307400637
:10166A00E38BE7FA13078005E38EE7FA130780078F
:10167A00E381E7FC13076006E394E7FCB2479D07A2
:10168A00E19B138787003AC68823553D95B7F240F8
:10169A006244D24421618280411106C6A933096598
:1016AA00130505340537096513054536213F09A891
:1016BA00370501E87536AA8509651305853919378D
:1016CA00370501E8A53E6DDDE5B7797122AC26A89C
:1016DA004AA406D64EA0D304A5225384B522212AB1
:1016EA00938701819843FD575309A5226308F7029E
:1016FA00D32784A285C7D3A794A2A5C7D30900D2AA
:10170A00D3A734A38DC7D32734A3ADE353058422CB
:10171A00EF00701801C5D31734A3C5E3B2505305BF
:10172A0029236224C2242229822945618280EF006A
:10173A00901631C9D30700D2D327F9A2E5D353852E
:10174A009422EF00501579D953058422EF00B01482
:10175A0071D5EF00D03A930720021CC1530900D279
:10176A0075BFD30700D2D327F4A2CDDBB2509717A7
:10177A00000007B987C3530529236224C2242229FA
:10178A0082294561828053859422EF00D0105DD171
:10179A0053058422EF00301051DDD32729A3A1C7B6
:1017AA00EF00F035D39734A31307200218C185E35D
:1017BA009717000007B967C095B7EF005034930731
:1017CA0010021CC19717000007B9A7BE81BF5305B5
:1017DA008422EF00500ED32785A2F9FB9717000049
:1017EA0007B927BD25BFEF009031930710021CC12E
:1017FA0053F9391B25B759712EA4B2472247B706A8
:10180A00008093C6F6FFA6D2B3F4F6002AA486D6C1
:10181A00A2D4CAD0CECED2CCD6CAA2A433E6E40091
:10182A002245B24541C233F4B600B706F07F2E8A8C
:10183A00AA8963C486063E893A886305D40863CEBA
:10184A009604B706F07F6388D4042AC82ECA3ACC15
:10185A003ECE814A63490A086317080CB707F07F2E
:10186A006383F414B707F03F6381F416B7070040A7
:10187A00630CF95CB707E03F6317F90A63450A0A84
:10188A0026544225B65096540659F649664AD64A0F
:10189A002624656181A5E30A08FAB70610C0A29654
:1018AA00558D05E59717000087B727B03EA4B650B7
:1018BA002654222596540659F649664AD64A2624BB
:1018CA006561828019E1E35E94F62654B650965417
:1018DA000659F649664AD64A262417150000130502
:1018EA00C5A76561E1A7B707404363D9F410B707F5
:1018FA00F03F63C8F40293D74441938717C0514716
:10190A006359F75413074003B307F7406247335745
:10191A00F700B317F70063960701058B894AB38A64
:10192A00EA40E30108F44225B12F2AA4638309049B
:10193A00D247FD83FD1733E7FA0079C33707E04141
:10194A006357970C3707F043635F9746B707F03F33
:10195A00635AF408635809069717000087B767A8FF
:10196A00D3F7F7123EA4A1B74225292F2AA46399D7
:10197A00090801C8D2473707F03F8A078983E399E4
:10198A00E7FA63440906E3540AF2B70710C0A297BC
:10199A00B3E7570163910750A227D3F7F70AD3F7A2
:1019AA00F71A3EA429B74247B70710C0A297D98FA2
:1019BA00E38A07EEB707F03F6344F43EE2273EA40A
:1019CA00E35709EE02C402C6DDB5C2273EA4E350BE
:1019DA0009EE22279717000087B7279DD3F7E71A42
:1019EA003EA4F1B5E34A20F7F1BF2227971700007A
:1019FA0087B7A79BD3F7E71A3EA471B7894AA9BD4F
:101A0A00C227D3F7F70AD3F7F71A3EA44DB5D24641
:101A1A003707F07F0145758F01EF2227171700005E
:101A2A008737A79F1305B0FCD377F7123EA4324439
:101A3A0037081000935544419306F8FF37A6030070
:101A4A00938515C0E18E3707F03F1306E688AA95FD
:101A5A00558F635ED63437B60B0013069667635408
:101A6A00D644D30100D29716000007B60694D307CE
:101A7A00C622D38231228505330707410145A24692
:101A8A003ACA058736C84227B7060020558F53F150
:101A9A00E702D370F70AB70608003697B306A7001D
:101AAA00014632C45371261A36C6A22617170000F9
:101ABA008735A797171700000730A799D3F7F60AB3
:101ACA00C226171700000732479A17170000073770
:101ADA00479517170000873FC79517170000073F5C
:101AEA00C79517170000873EC79517170000073ECE
:101AFA00C7951717000007384796D3F7F60A17173E
:101B0A0000008736079602C402C802D002D453F5F1
:101B1A00201232DC538305D22AB85375A5125257C4
:101B2A003AC6222436DE4377E55AE233D375A51244
:101B3A00CB70740A4234A2234377A7FAD373740290
:101B4A002224CB77F40A4377A7F2C3788402D3F727
:101B5A0027124377A7EAD3F0F3124377A7E243F7B2
:101B6A00E50AD3F5E8022EBC72573ACAC225D3F564
:101B7A00050ACB75845A5377B70AC2355377B71219
:101B8A00C225C3F7B7725387B522C2254377877A2E
:101B9A003AB852573AD202354B77B452D3F7E70ADA
:101BAA00D3F70713C3F7A67A53F75702C377A2727C
:101BBA00D3F73702D3F767023EA432473AD6A237A1
:101BCA00A235D3F7670AD3F7370ACB77457A537723
:101BDA00F70AFD1AB3E7FA005304C62289E7970702
:101BEA00000007B4877FF24702C4E2273EC6A22656
:101BFA00B7069040D3F7D70AE2265377D712A22620
:101C0A00D3F6D512C3F7B77253F7D7023AA4B2473D
:101C1A0022473E8863C3D714B386D740D98E6392CE
:101C2A0006263EC63AC4A2259716000007B7668460
:101C3A0053F7E702D3F5D50AD397E5A263930724AE
:101C4A009357484193F7F77F37061000938727C0C9
:101C5A00B357F640C29713D747411377F77F130755
:101C6A0017C01305F6FFB356E54093C6F6FFFD8E7F
:101C7A007D8DD14702C436C6518D3387E74022276E
:101C8A003355E540635408003305A040D3F6E60A0D
:101C9A009316450153F7D7023AA4B2473EC602C487
:101CAA0022279707000087B5C77D9707000007B569
:101CBA00C77DD376D70AD3F5E5129707000007B098
:101CCA00477D9707000007B7477D9707000087B24F
:101CDA00477D9707000007B2477D9707000087B145
:101CEA00477DD3F7D70AA2269707000007B1E77CFA
:101CFA009707000087B0E77CC3F7A75AC375D07A65
:101D0A0053F5B512CBF6065A4377E52AD3F7D70A25
:101D1A004377A722C3F7F57A4377A71A4377A7121F
:101D2A004B77A75AD3F6E5125377170A53F7E61AF1
:101D3A00D377F70AD3F7B70AD377F60A3EA4B2479E
:101D4A002247BE9613D646416352C0183AC436C6D5
:101D5A002225D37785123EA499BE93951700B7D64C
:101D6A00904085819386F6BF63D4B610B7366F3F2D
:101D7A0093860640BE96D98E91EA3EC63AC4222779
:101D8A005377D70AD387E7A2E38C07EA97070000BD
:101D9A0087B7A76E5374F412D377F4123EA401BE28
:101DAA00E35209C2E227D397F7223EA409B6D30128
:101DBA0000D29706000007B6465F0145D38231225A
:101DCA00D307C6226DB93707F03F9306E7FFE3D37F
:101DDA0086B8E34987C0A227170700000736E75CE1
:101DEA00170700000730E760D3F7C70A1707000094
:101DFA008736A75F1707000087302760170700009C
:101E0A000735276017070000073727601707000004
:101E1A008735276002C4CBF6D70253F0F712CBF608
:101E2A00F60AD3F60612D3F6A61247F7E76AC3F6FE
:101E3A00B77236A852473AC6A226CBF7B76AD385F5
:101E4A00D6225377F70A71B3C227D3F7F7123EA403
:101E5A00B9BCE31B08B0B307F74033D7F440B31754
:101E6A00F700E39197A0058B894AB38AEA40DDBA65
:101E7A003706E03F81460145E352B6E293D7454132
:101E8A00E1B39707000087B7C7555374F412D377A5
:101E9A00F4123EA429BC8547E39BFAA0A227D39754
:101EAA00F7223EA429B49706000087B18651970607
:101EBA00000087B28651370504009706000087B7ED
:101ECA0046519706000007B6464E55BE5385F7227F
:101EDA00352E41B541112AA4B2463707F07F224672
:101EEA003378D700630DE816B68732856357D00E6C
:101EFA0093D54641638E0516370710009306F7FF00
:101F0A00F58FD98F938615C01397170013F616000D
:101F1A009357F501BA971317150011C67D838607E3
:101F2A00BA971317250093DE1640D945014E81460C
:101F3A00370620003385C6001358F701FD1563C61E
:101F4A00A700898FB306C500329E8607C297060787
:101F5A000582EDF10143130800023706008021A82B
:101F6A00638ED70C1355F70186077D18AA970607C3
:101F7A000582630B08023305B600E3D3F6FEB30508
:101F8A00C500B6886346050A958FB336A700958FB4
:101F9A00098F1355F70186077D183293C686AA97CB
:101FAA0006070582E31908FCD98FD5E313581300F5
:101FBA0093571E403707E03F137E1E003E97630685
:101FCA000E00B70700803368F80093974E01BA975E
:101FDA0042C43EC62225410182801397160005831A
:101FEA0032C436C6518F22257DD7B5EE1356B500B9
:101FFA00AD17328756057DDA93564601BDEE814606
:10200A0011A0AE8606071316B70093851600E35A89
:10201A0006FE930800022A88B388B8403A86331528
:10202A00B50033571801B385D740B367C700E9B580
:10203A0093C8F5FF93D8F801B698B9B7E364A7F245
:10204A00B305C500E34605FEBE88814791B7FD5733
:10205A006303F302130813001358180091BF437562
:10206A00A552410182805375A50A5375A51AA5B7D1
:10207A003687814769B7050E25BF2A88930800026B
:10208A00FD5645B741112AA43247060705833AC6C9
:10209A0022254101828041112AA43245B7071080C6
:1020AA00060505813E957D814101828097070000E2
:1020BA0007B5A741828001112AA43247A2474D469B
:1020CA009356474193F6F67F938516C03A833E8826
:1020DA009358F7016345B60E63CD0506370610001F
:1020EA007D163356B6403375E6003EC43AC65D8D5A
:1020FA0031CD135516003378E5003368F8006305CF
:10210A0008021386E6BE3703040013361600134589
:10211A00F5FF370800803306C040698FB355B340D6
:10212A003378C8003363B7008E0897070000938797
:10213A00473A42C41AC6BE9807B70800A227D377FF
:10214A00F7023EACE227D3F7E70A3EA4222505614F
:10215A008280B706008093C6F6FF33F6E600D18F79
:10216A00F5D79317C700B18333E70701B307E040F8
:10217A0013963800D98F170700001307873532974F
:10218A001823B18301773706080033776700F18F88
:10219A00B3E5E70042C42EC6A227FE08D377F702AA
:1021AA003EACE227D3F7E70A3EA4B2472247FD8EA8
:1021BA00B3E616013AC436C62225056182801306A3
:1021CA003003635DB6003EC43AC693070040A227B7
:1021DA00E39EF5F6D3F7F7023EA48DBF9386D6BEEB
:1021EA007D563356D6003AC63EC43377F60039DFF9
:1021FA0005823377F6000DDB370800401346F6FFF9
:10220A00F18FB356D84033E8D70039BF41112AA419
:10221A00B248224893D6484193F6F67FB5EE939694
:10222A0018008582B3E60601B5C69707000087B78E
:10223A00472BD377F512D176938606CB3EA4224854
:10224A00B2486346D50A93D6484193F6F67F468646
:10225A009386A6FCAA969305E07F63C2D502634DD6
:10226A00D0069305B0FC63D5B604B16693860635ED
:10227A0063C7A6009707000087B7272029A09707FA
:10228A00000087B7071642C446C622275385E722AD
:10229A005375F512410182809305F07F4686E39BD0
:1022AA00B6FA42C446C6A227410153F5F702828014
:1022BA00B7071080FD17938666037D8ED206B3E5B5
:1022CA00C60042C42EC6A2279707000007B5E72119
:1022DA005375F51241018280B7071080FD177D8E74
:1022EA00D206D18E42C436C6222541018280970782
:1022FA00000007B5871853F5A7124101828093871A
:06230A004181884382803E
:04231000F8240000AD
:102318003031323334353637383941424344454613
:1023280000000000303132333435363738396162D5
:1023380063646566000000002A2A2A537461727477
:10234800696E672055617274204563686F20446523
:102358006D6F2A2A2A200D0A00000000537461724A
:102368007420747970696E67206F6E207465726D61
:10237800696E616C20746F2073656E642063686198
:102388007261637465722E2E2E200D0A0000000003
:102398004563686F206368617261637465723A208F
:1023A8002563200D0A000000000000000000F03F37
:1023B800000000000000F0FF000000000000F07FB7
:1023C8000000004003B8E23F06D0CF43EBFD4C3E8F
:1023D800000000000000F83F000000000000F0BF0F
:1023E8009C7500883CE4377E000000000000D03F68
:1023F800555555555555D53F000000000000E03FA4
:10240800FE822B654715F73F44DF5DF80BAE543E5F
:10241800000000604715F73F00000000000040433F
:10242800EF4E454A287ECA3F65DBC9934A86CD3FB1
:1024380001411DA96074D13F4D268F515555D53F97
:10244800FFAB6FDBB66DDB3F033333333333E33F2F
:102458000000000000000840FD033ADC09C7EE3F19
:10246800F5015B14E02F3EBE000000E009C7EE3F17
:10247800FE822B654715973C59F3F8C21F6EA501DC
:10248800396CA80C615C20BEEF39FAFE422EE63F9B
:1024980000000000432EE63FD0A4BE726937663EB6
:1024A800F16BD2C541BDBBBE2CDE25AF6A56113FCC
:1024B80093BDBE166CC166BF3E5555555555C53FB3
:1024C8000000000000000040000000000000F87F4D
:1024D800000000000000304300000000000030C38E
:1024E8000000000000005043000000000000903C85
:1024F80000000000E42700004C280000B428000079
:1025080000000000000000000000000000000000C3
:1025180000000000000000000000000000000000B3
:1025280000000000000000000000000000000000A3
:102538000000000000000000000000000000000093
:102548000000000000000000000000000000000083
:102558000000000000000000000000000000000073
:102568000000000000000000000000000000000063
:102578000000000000000000000000000000000053
:102588000000000000000000000000000000000043
:102598000000000000000000010000000000000032
:1025A8000E33CDAB34126DE6ECDE05000B000000F7
:1025B8000000000000000000000000000000000013
:1025C8000000000000000000000000000000000003
:1025D80000000000000000000000000000000000F3
:1025E80000000000000000000000000000000000E3
:102918000000000000000000FFFFFFFFF824000097
:10292800000000000088C3400000000000002440B0
:0A2938000000000000000000000095
:0400000300001000E9
:00000001FF
