:02000004F90001
:1000000097110000938101C523A00182732540F15F
:1000100015C503A5018275DD0F0020020F10000039
:1000200083A7C181014581450146828723AEA18016
:100030000F001001054523A0A182828013810103D6
:1000400017050000130585409705000093850540BE
:100050001386C18163FAC5008322050023A05500E1
:1000600011059105E3EAC5FE1385C181938581825F
:100070006377B500232005001105E36DB5FE21204F
:060080007D2C01A082802E
:10008600411122C44AC0170400001304C43B1709D7
:1000960000001309493B3309894006C626C2135995
:1000A60029406309090081441C4085041104829794
:1000B600E31C99FE170400001304E4381709000036
:1000C600130969383309894013592940630909001E
:1000D60081441C40850411048297E31C99FEB240BA
:1000E600224492440249410182804841418113756C
:1000F600F50F8280484161818280411106C622C483
:1001060026C22A84AE842285CD3775DD04C0B2406E
:100116002244924441018280411106C622C426C26D
:10012600AA842E848345040089C505042685F137F3
:10013600D5BFB2402244924441018280411106C695
:1001460022C42A8422857D3775DD08401375F50F94
:10015600B240224441018280DC451CC59C41FD170A
:10016600D8412207D98F98454207D98F5CC582802E
:10017600B7470F0093870724B3D5F502B167E11798
:100186003E961C423385A5023E951C42B307F540B8
:10019600E3DD07FE8280B70710E83E9508418280BE
:1001A600B70710E83E950CC18280011106CEA14723
:1001B6003EC002C202C49307D0033EC68A85693F89
:1001C600F24005618280B70701E8DC43C18393F7FB
:1001D600F70FF5DBB70701E888C38280411106C631
:1001E60022C42A841375F50FF93F13558400E13FA5
:1001F600B240224441018280411106C622C42A84AB
:100206001375F50FC937135584001375F50F653F40
:10021600135504011375F50F7D37135584016537A2
:10022600B240224441018280411106C622C426C240
:100236004AC02A844205418193540401139904015A
:1002460013590901218141371375F40FAD3F135539
:100256008900953F13F5F40FBD37B240224492440E
:10026600024941018280931755006D815D8D2D8D68
:100276008280411106C622C426C24AC02A89AE849B
:100286003284130560058137130560042D3F13057D
:100296002005153F1305D0043D3705452D37054587
:1002A6001D371305000A1D3F1305A005053F4A85A6
:1002B600A13726859137014581371375F40F21370C
:1002C60005451137B24022449244024941018280D9
:1002D600411106C622C42A8411A00544370501E847
:1002E600113D31C5370501E8913D93072005E30629
:1002F600F5FE930720076304F50293076004630283
:10030600F502930760066300F50293073005630E56
:10031600F50093073007E313F5FC0144C1B7054424
:1003260075BF094465BF094455BF014445BF2285D1
:10033600B240224441018280797106D622D426D267
:100346004AD04ECE52CC56CA5AC85EC6732B40F11E
:1003560063050B0073005010F5BF370501E8B13592
:10036600371501E8993501453D35B7574956938705
:10037600E7346315F500DA8A8549A5A0B70500F9C3
:1003860093858544370501E8413B73005010F5BF5E
:10039600714579A093172400D2978443A6854A8590
:1003A600D9352A89268549350504E36574FF4A85CA
:1003B600A135894513050003E5333706B0F8B7B50F
:1003C600E60E93850528316513050535553311A8C5
:1003D6003706B0F8B7B5E60E938505281305803EB7
:1003E600413B61454D3B2A8441457533AA844E8580
:1003F600C535AA898547E31DF5FC098871D8E389C7
:100406009AFC854513050003613B130540036133E0
:100416002A84130580034133AA8A3DD813050002B6
:100426009D3B2A8A13054002BD33AA85935B2500AE
:10043600B70710E83E9A22865685253D5A845A8982
:02044600ADB750
:10044800564953494F4E20415042204552524F522F
:100458000D0A00000000000000000000000000007D
:02046800000092
:04000005F9000000FE
:00000001FF
