:02000004F90001
:1000000097110000938181BF23A00182732540F1E5
:1000100015C503A5018275DD0F0020020F10000039
:1000200083A7C181014581450146828723AEA18016
:100030000F001001054523A0A18282801381810257
:100040001705000013054530970500009385C52F5F
:100050001386C18163FAC5008322050023A05500E1
:1000600011059105E3EAC5FE1385C181938581825F
:100070006377B500232005001105E36DB5FE21204F
:06008000A12A01A082800C
:10008600411122C44AC0170400001304642B170947
:1000960000001309E92A3309894006C626C2135906
:1000A60029406309090081441C4085041104829794
:1000B600E31C99FE170400001304842817090000A6
:1000C600130909283309894013592940630909008E
:1000D60081441C40850411048297E31C99FEB240BA
:1000E600224492440249410182804841418113756C
:1000F600F50F8280411106C622C426C22A84AE8428
:100106002285E53775DD04C0B240224492444101A0
:100116008280DC451CC59C41FD17D8412207D98F3A
:1001260098454207D98F5CC58280411106C622C414
:1001360026C24AC02A89AE841D4431A09385050390
:100146004A854D3F7D14634D040093152400B3D5B5
:10015600B440BD89A547E3D3B7FE93857503CDB7F4
:10016600B24022449244024941018280011106CEE6
:10017600A1473EC002C202C49307E0103EC68A856C
:10018600370501E87937F24005618280B70710E844
:100196003E9508418280B70710E83E950CC18280E3
:1001A600411106C622C42A848345040091C505046C
:1001B600370501E88137CDBFB24022444101828034
:1001C600411106C6AA85370501E88537B2404101C7
:1001D6008280011106CE22CC26CA4AC84EC652C417
:1001E60056C2732940F16305090073005010F5BF2C
:1001F600B53F370500F9130545345D37370500F976
:1002060013058536713F370510E85D3F370500F960
:100216001305053771370145953F5D37370500F9F9
:100226001305C537B53F21459537593F370500F9C1
:100236001305053BB5370145913FB7574956938797
:10024600E7346314F500CA845DA0370500F9130589
:10025600C538B93773005010F5BF7145D1A01316D4
:1002660054009356B401D18E139627003A96004255
:10027600358C8507E3E5A7FEB7070040FD173E95D9
:100286000A052A97832A07008945130500032137A3
:10029600370500F91305453B213726851537370500
:1002A60000F91305453CED3D4E85193F370500F92C
:1002B6001305053DF53552852137370500F9130538
:1002C600C53DF93D5685ED3D370500F91305853EDB
:1002D600C13D2285F53513850180D9351305800288
:1002E6007535F93D370500F91305053B553D614563
:1002F600713D2A844145593D098875D8E389A4FE94
:10030600854513050003413D130540034135AA8980
:1003160013058003A53DAA84E38109F413050002B1
:10032600B5352A841305400295350981370710E84B
:0C0336002297032A0700CA874A842DBFC3
:100344000D0A566973696F6E203136307839302062
:10035400415042206672616D6520746573740D0AA4
:1003640000000000626173653D307800206D6167B4
:1003740069633D30780000002064696D656E7369BF
:100384006F6E733D307800004552524F523A20410F
:100394005042206672616D652077696E646F7720C4
:1003A4006E6F742064657465637465640D0A00007F
:1003B4006672616D65207365713D307800000000E0
:1003C4002062616E6B3D3078000000002066697227
:1003D40073743D3078000000206C6173743D307894
:1003E4000000000020636865636B73756D3D3078B1
:1003F400000000002064726F70733D3078000000CC
:0E0404000000000000000000000000000000EA
:04000005F9000000FE
:00000001FF
