:02000004F90001
:1000000097110000938101BF23A00182732540F165
:1000100015C503A5018275DD0F0020020F10000039
:1000200083A7C181014581450146828723AEA18016
:100030000F001001054523A0A182828013810103D6
:10004000170500001305852C970500009385052CE6
:100050001386C18163FAC5008322050023A05500E1
:1000600011059105E3EAC5FE1385C181938581825F
:100070006377B500232005001105E36DB5FE21204F
:06008000752201A0828040
:10008600411122C44AC0170400001304A42717090B
:100096000000130929273309894006C626C21359C9
:1000A60029406309090081441C4085041104829794
:1000B600E31C99FE170400001304C424170900006A
:1000C6001309492433098940135929406309090052
:1000D60081441C40850411048297E31C99FEB240BA
:1000E600224492440249410182804841418113756C
:1000F600F50F8280411106C622C426C22A84AE8428
:100106002285E53775DD04C0B240224492444101A0
:100116008280DC451CC59C41FD17D8412207D98F3A
:1001260098454207D98F5CC58280411106C622C414
:1001360026C24AC02A89AE841D4431A09385050390
:100146004A854D3F7D14634D040093152400B3D5B5
:10015600B440BD89A547E3D3B7FE93857503CDB7F4
:10016600B24022449244024941018280011106CEE6
:10017600A1473EC002C202C49307E0103EC68A856C
:10018600370501E87937F2400561828041112AC6B8
:10019600B2471387F7FF3AC699C30100D5BF41019D
:1001A6008280411106C622C42A848345040091C573
:1001B6000504370501E83D3FCDBFB2402244410169
:1001C6008280411106C6AA85370501E8B93FB240CB
:1001D60041018280011106CE22CC19C1014435A00D
:1001E60093050003370501E83137F24062440561A3
:1001F60082802947B377E502938707031408A296FE
:10020600238AF6FE3355E502050401C5A947E3F244
:1002160087FE61DC7D141C08A29783C547FF37055E
:1002260001E8C93DFDB7411106C622C426C24AC02F
:10023600732440F101C473005010F5BF053F370524
:1002460000F913058530B13F370900F91305093167
:10025600893F370500F91305C533A137370500F97E
:10026600130505363D3F370500F913054538153F9B
:10027600370501E8B937B70400F913858433153714
:10028600370500F913054539293F370500F9153FAC
:10029600370500F91305C53A293711651D3713854A
:1002A60084330137370500F91305853BDD3D22858B
:1002B600153713858433F535370500F91305453CA5
:1002C600CD3513050931F13D732900B0370500F925
:1002D6001305453EF935930414002285E53D138543
:1002E6004180C1354A85F13D370500F9130585334F
:1002F6004D3D37353101130505D0493D2684E9B713
:100308000D0A0D0A000000003D3D3D3D3D3D3D3DCF
:100318003D3D3D3D3D3D3D3D3D3D3D3D3D3D3D3D05
:100328003D3D3D3D3D3D3D3D3D3D3D3D3D3D3D3DF5
:100338000D0A0000566973696F6E20686172642047
:10034800524953432D5620554152542073656C66CB
:100358002D746573740D0A004275696C643A2069DE
:100368006E7465726E616C2052414D2C205541525D
:100378005430206F6E6C790D0A00000055415254BC
:1003880020626173653A203078000000496E746518
:10039800726E616C2052414D20626173653A203063
:1003A800780000002C2073697A653A2030780000C4
:1003B8006D6861727469643A200000004578706560
:1003C800637465642073657269616C3A20313135F4
:1003D80032303020384E310D0A0000005B616C6904
:1003E80076655D20636F756E743D0000206D6379DE
:1003F800636C653D307800000000000000000000DC
:020408000000F2
:04000005F9000000FE
:00000001FF
